{
  "contractName": "KurateNFT",
  "abi": [
    {
      "inputs": [],
      "stateMutability": "nonpayable",
      "type": "constructor"
    },
    {
      "anonymous": false,
      "inputs": [
        {
          "indexed": true,
          "internalType": "address",
          "name": "owner",
          "type": "address"
        },
        {
          "indexed": true,
          "internalType": "address",
          "name": "approved",
          "type": "address"
        },
        {
          "indexed": true,
          "internalType": "uint256",
          "name": "tokenId",
          "type": "uint256"
        }
      ],
      "name": "Approval",
      "type": "event"
    },
    {
      "anonymous": false,
      "inputs": [
        {
          "indexed": true,
          "internalType": "address",
          "name": "owner",
          "type": "address"
        },
        {
          "indexed": true,
          "internalType": "address",
          "name": "operator",
          "type": "address"
        },
        {
          "indexed": false,
          "internalType": "bool",
          "name": "approved",
          "type": "bool"
        }
      ],
      "name": "ApprovalForAll",
      "type": "event"
    },
    {
      "anonymous": false,
      "inputs": [
        {
          "indexed": true,
          "internalType": "address",
          "name": "from",
          "type": "address"
        },
        {
          "indexed": true,
          "internalType": "address",
          "name": "to",
          "type": "address"
        },
        {
          "indexed": true,
          "internalType": "uint256",
          "name": "tokenId",
          "type": "uint256"
        }
      ],
      "name": "Transfer",
      "type": "event"
    },
    {
      "inputs": [
        {
          "internalType": "address",
          "name": "to",
          "type": "address"
        },
        {
          "internalType": "uint256",
          "name": "tokenId",
          "type": "uint256"
        }
      ],
      "name": "approve",
      "outputs": [],
      "stateMutability": "nonpayable",
      "type": "function"
    },
    {
      "inputs": [
        {
          "internalType": "address",
          "name": "owner",
          "type": "address"
        }
      ],
      "name": "balanceOf",
      "outputs": [
        {
          "internalType": "uint256",
          "name": "",
          "type": "uint256"
        }
      ],
      "stateMutability": "view",
      "type": "function"
    },
    {
      "inputs": [
        {
          "internalType": "uint256",
          "name": "tokenId",
          "type": "uint256"
        }
      ],
      "name": "getApproved",
      "outputs": [
        {
          "internalType": "address",
          "name": "",
          "type": "address"
        }
      ],
      "stateMutability": "view",
      "type": "function"
    },
    {
      "inputs": [
        {
          "internalType": "address",
          "name": "owner",
          "type": "address"
        },
        {
          "internalType": "address",
          "name": "operator",
          "type": "address"
        }
      ],
      "name": "isApprovedForAll",
      "outputs": [
        {
          "internalType": "bool",
          "name": "",
          "type": "bool"
        }
      ],
      "stateMutability": "view",
      "type": "function"
    },
    {
      "inputs": [],
      "name": "name",
      "outputs": [
        {
          "internalType": "string",
          "name": "",
          "type": "string"
        }
      ],
      "stateMutability": "view",
      "type": "function"
    },
    {
      "inputs": [
        {
          "internalType": "uint256",
          "name": "tokenId",
          "type": "uint256"
        }
      ],
      "name": "ownerOf",
      "outputs": [
        {
          "internalType": "address",
          "name": "",
          "type": "address"
        }
      ],
      "stateMutability": "view",
      "type": "function"
    },
    {
      "inputs": [
        {
          "internalType": "address",
          "name": "from",
          "type": "address"
        },
        {
          "internalType": "address",
          "name": "to",
          "type": "address"
        },
        {
          "internalType": "uint256",
          "name": "tokenId",
          "type": "uint256"
        }
      ],
      "name": "safeTransferFrom",
      "outputs": [],
      "stateMutability": "nonpayable",
      "type": "function"
    },
    {
      "inputs": [
        {
          "internalType": "address",
          "name": "from",
          "type": "address"
        },
        {
          "internalType": "address",
          "name": "to",
          "type": "address"
        },
        {
          "internalType": "uint256",
          "name": "tokenId",
          "type": "uint256"
        },
        {
          "internalType": "bytes",
          "name": "_data",
          "type": "bytes"
        }
      ],
      "name": "safeTransferFrom",
      "outputs": [],
      "stateMutability": "nonpayable",
      "type": "function"
    },
    {
      "inputs": [
        {
          "internalType": "address",
          "name": "operator",
          "type": "address"
        },
        {
          "internalType": "bool",
          "name": "approved",
          "type": "bool"
        }
      ],
      "name": "setApprovalForAll",
      "outputs": [],
      "stateMutability": "nonpayable",
      "type": "function"
    },
    {
      "inputs": [
        {
          "internalType": "bytes4",
          "name": "interfaceId",
          "type": "bytes4"
        }
      ],
      "name": "supportsInterface",
      "outputs": [
        {
          "internalType": "bool",
          "name": "",
          "type": "bool"
        }
      ],
      "stateMutability": "view",
      "type": "function"
    },
    {
      "inputs": [],
      "name": "symbol",
      "outputs": [
        {
          "internalType": "string",
          "name": "",
          "type": "string"
        }
      ],
      "stateMutability": "view",
      "type": "function"
    },
    {
      "inputs": [
        {
          "internalType": "uint256",
          "name": "tokenId",
          "type": "uint256"
        }
      ],
      "name": "tokenURI",
      "outputs": [
        {
          "internalType": "string",
          "name": "",
          "type": "string"
        }
      ],
      "stateMutability": "view",
      "type": "function"
    },
    {
      "inputs": [
        {
          "internalType": "address",
          "name": "from",
          "type": "address"
        },
        {
          "internalType": "address",
          "name": "to",
          "type": "address"
        },
        {
          "internalType": "uint256",
          "name": "tokenId",
          "type": "uint256"
        }
      ],
      "name": "transferFrom",
      "outputs": [],
      "stateMutability": "nonpayable",
      "type": "function"
    },
    {
      "inputs": [
        {
          "internalType": "address",
          "name": "receiver",
          "type": "address"
        },
        {
          "internalType": "uint256",
          "name": "serial",
          "type": "uint256"
        },
        {
          "internalType": "string",
          "name": "tokenURI",
          "type": "string"
        }
      ],
      "name": "mintToken",
      "outputs": [
        {
          "internalType": "uint256",
          "name": "",
          "type": "uint256"
        }
      ],
      "stateMutability": "nonpayable",
      "type": "function"
    }
  ],
  "bytecode": "0x60806040523480156200001157600080fd5b506040518060400160405280601481526020017f4b757261746520627920737761726d2e636974790000000000000000000000008152506040518060400160405280600481526020017f4b55524100000000000000000000000000000000000000000000000000000000815250816000908051906020019062000096929190620000b8565b508060019080519060200190620000af929190620000b8565b505050620001cd565b828054620000c69062000168565b90600052602060002090601f016020900481019282620000ea576000855562000136565b82601f106200010557805160ff191683800117855562000136565b8280016001018555821562000136579182015b828111156200013557825182559160200191906001019062000118565b5b50905062000145919062000149565b5090565b5b80821115620001645760008160009055506001016200014a565b5090565b600060028204905060018216806200018157607f821691505b602082108114156200019857620001976200019e565b5b50919050565b7f4e487b7100000000000000000000000000000000000000000000000000000000600052602260045260246000fd5b612ad580620001dd6000396000f3fe608060405234801561001057600080fd5b50600436106100ea5760003560e01c806370a082311161008c578063b88d4fde11610066578063b88d4fde1461025b578063c87b56dd14610277578063e985e9c5146102a7578063f76e8ba9146102d7576100ea565b806370a08231146101f157806395d89b4114610221578063a22cb4651461023f576100ea565b8063095ea7b3116100c8578063095ea7b31461016d57806323b872dd1461018957806342842e0e146101a55780636352211e146101c1576100ea565b806301ffc9a7146100ef57806306fdde031461011f578063081812fc1461013d575b600080fd5b61010960048036038101906101049190611c69565b610307565b604051610116919061242d565b60405180910390f35b6101276103e9565b6040516101349190612448565b60405180910390f35b61015760048036038101906101529190611cbb565b61047b565b60405161016491906123c6565b60405180910390f35b61018760048036038101906101829190611bc6565b610500565b005b6101a3600480360381019061019e9190611ac0565b610618565b005b6101bf60048036038101906101ba9190611ac0565b610678565b005b6101db60048036038101906101d69190611cbb565b610698565b6040516101e891906123c6565b60405180910390f35b61020b60048036038101906102069190611a5b565b61074a565b604051610218919061266a565b60405180910390f35b610229610802565b6040516102369190612448565b60405180910390f35b61025960048036038101906102549190611b8a565b610894565b005b61027560048036038101906102709190611b0f565b610a15565b005b610291600480360381019061028c9190611cbb565b610a77565b60405161029e9190612448565b60405180910390f35b6102c160048036038101906102bc9190611a84565b610bc9565b6040516102ce919061242d565b60405180910390f35b6102f160048036038101906102ec9190611c02565b610c5d565b6040516102fe919061266a565b60405180910390f35b60007f80ac58cd000000000000000000000000000000000000000000000000000000007bffffffffffffffffffffffffffffffffffffffffffffffffffffffff1916827bffffffffffffffffffffffffffffffffffffffffffffffffffffffff191614806103d257507f5b5e139f000000000000000000000000000000000000000000000000000000007bffffffffffffffffffffffffffffffffffffffffffffffffffffffff1916827bffffffffffffffffffffffffffffffffffffffffffffffffffffffff1916145b806103e257506103e182610c7d565b5b9050919050565b6060600080546103f8906128ca565b80601f0160208091040260200160405190810160405280929190818152602001828054610424906128ca565b80156104715780601f1061044657610100808354040283529160200191610471565b820191906000526020600020905b81548152906001019060200180831161045457829003601f168201915b5050505050905090565b600061048682610ce7565b6104c5576040517f08c379a00000000000000000000000000000000000000000000000000000000081526004016104bc906125ca565b60405180910390fd5b6004600083815260200190815260200160002060009054906101000a900473ffffffffffffffffffffffffffffffffffffffff169050919050565b600061050b82610698565b90508073ffffffffffffffffffffffffffffffffffffffff168373ffffffffffffffffffffffffffffffffffffffff16141561057c576040517f08c379a00000000000000000000000000000000000000000000000000000000081526004016105739061262a565b60405180910390fd5b8073ffffffffffffffffffffffffffffffffffffffff1661059b610d53565b73ffffffffffffffffffffffffffffffffffffffff1614806105ca57506105c9816105c4610d53565b610bc9565b5b610609576040517f08c379a00000000000000000000000000000000000000000000000000000000081526004016106009061250a565b60405180910390fd5b6106138383610d5b565b505050565b610629610623610d53565b82610e14565b610668576040517f08c379a000000000000000000000000000000000000000000000000000000000815260040161065f9061264a565b60405180910390fd5b610673838383610ef2565b505050565b61069383838360405180602001604052806000815250610a15565b505050565b6000806002600084815260200190815260200160002060009054906101000a900473ffffffffffffffffffffffffffffffffffffffff169050600073ffffffffffffffffffffffffffffffffffffffff168173ffffffffffffffffffffffffffffffffffffffff161415610741576040517f08c379a00000000000000000000000000000000000000000000000000000000081526004016107389061254a565b60405180910390fd5b80915050919050565b60008073ffffffffffffffffffffffffffffffffffffffff168273ffffffffffffffffffffffffffffffffffffffff1614156107bb576040517f08c379a00000000000000000000000000000000000000000000000000000000081526004016107b29061252a565b60405180910390fd5b600360008373ffffffffffffffffffffffffffffffffffffffff1673ffffffffffffffffffffffffffffffffffffffff168152602001908152602001600020549050919050565b606060018054610811906128ca565b80601f016020809104026020016040519081016040528092919081815260200182805461083d906128ca565b801561088a5780601f1061085f5761010080835404028352916020019161088a565b820191906000526020600020905b81548152906001019060200180831161086d57829003601f168201915b5050505050905090565b61089c610d53565b73ffffffffffffffffffffffffffffffffffffffff168273ffffffffffffffffffffffffffffffffffffffff16141561090a576040517f08c379a0000000000000000000000000000000000000000000000000000000008152600401610901906124ca565b60405180910390fd5b8060056000610917610d53565b73ffffffffffffffffffffffffffffffffffffffff1673ffffffffffffffffffffffffffffffffffffffff16815260200190815260200160002060008473ffffffffffffffffffffffffffffffffffffffff1673ffffffffffffffffffffffffffffffffffffffff16815260200190815260200160002060006101000a81548160ff0219169083151502179055508173ffffffffffffffffffffffffffffffffffffffff166109c4610d53565b73ffffffffffffffffffffffffffffffffffffffff167f17307eab39ab6107e8899845ad3d59bd9653f200f220920489ca2b5937696c3183604051610a09919061242d565b60405180910390a35050565b610a26610a20610d53565b83610e14565b610a65576040517f08c379a0000000000000000000000000000000000000000000000000000000008152600401610a5c9061264a565b60405180910390fd5b610a718484848461114e565b50505050565b6060610a8282610ce7565b610ac1576040517f08c379a0000000000000000000000000000000000000000000000000000000008152600401610ab8906125aa565b60405180910390fd5b6000600660008481526020019081526020016000208054610ae1906128ca565b80601f0160208091040260200160405190810160405280929190818152602001828054610b0d906128ca565b8015610b5a5780601f10610b2f57610100808354040283529160200191610b5a565b820191906000526020600020905b815481529060010190602001808311610b3d57829003601f168201915b505050505090506000610b6b6111aa565b9050600081511415610b81578192505050610bc4565b600082511115610bb6578082604051602001610b9e9291906123a2565b60405160208183030381529060405292505050610bc4565b610bbf846111c1565b925050505b919050565b6000600560008473ffffffffffffffffffffffffffffffffffffffff1673ffffffffffffffffffffffffffffffffffffffff16815260200190815260200160002060008373ffffffffffffffffffffffffffffffffffffffff1673ffffffffffffffffffffffffffffffffffffffff16815260200190815260200160002060009054906101000a900460ff16905092915050565b6000610c698484611268565b610c738383611286565b8290509392505050565b60007f01ffc9a7000000000000000000000000000000000000000000000000000000007bffffffffffffffffffffffffffffffffffffffffffffffffffffffff1916827bffffffffffffffffffffffffffffffffffffffffffffffffffffffff1916149050919050565b60008073ffffffffffffffffffffffffffffffffffffffff166002600084815260200190815260200160002060009054906101000a900473ffffffffffffffffffffffffffffffffffffffff1673ffffffffffffffffffffffffffffffffffffffff1614159050919050565b600033905090565b816004600083815260200190815260200160002060006101000a81548173ffffffffffffffffffffffffffffffffffffffff021916908373ffffffffffffffffffffffffffffffffffffffff160217905550808273ffffffffffffffffffffffffffffffffffffffff16610dce83610698565b73ffffffffffffffffffffffffffffffffffffffff167f8c5be1e5ebec7d5bd14f71427d1e84f3dd0314c0f7b2291e5b200ac8c7c3b92560405160405180910390a45050565b6000610e1f82610ce7565b610e5e576040517f08c379a0000000000000000000000000000000000000000000000000000000008152600401610e55906124ea565b60405180910390fd5b6000610e6983610698565b90508073ffffffffffffffffffffffffffffffffffffffff168473ffffffffffffffffffffffffffffffffffffffff161480610ed857508373ffffffffffffffffffffffffffffffffffffffff16610ec08461047b565b73ffffffffffffffffffffffffffffffffffffffff16145b80610ee95750610ee88185610bc9565b5b91505092915050565b8273ffffffffffffffffffffffffffffffffffffffff16610f1282610698565b73ffffffffffffffffffffffffffffffffffffffff1614610f68576040517f08c379a0000000000000000000000000000000000000000000000000000000008152600401610f5f906125ea565b60405180910390fd5b600073ffffffffffffffffffffffffffffffffffffffff168273ffffffffffffffffffffffffffffffffffffffff161415610fd8576040517f08c379a0000000000000000000000000000000000000000000000000000000008152600401610fcf906124aa565b60405180910390fd5b610fe38383836112fa565b610fee600082610d5b565b6001600360008573ffffffffffffffffffffffffffffffffffffffff1673ffffffffffffffffffffffffffffffffffffffff168152602001908152602001600020600082825461103e91906127e0565b925050819055506001600360008473ffffffffffffffffffffffffffffffffffffffff1673ffffffffffffffffffffffffffffffffffffffff16815260200190815260200160002060008282546110959190612759565b92505081905550816002600083815260200190815260200160002060006101000a81548173ffffffffffffffffffffffffffffffffffffffff021916908373ffffffffffffffffffffffffffffffffffffffff160217905550808273ffffffffffffffffffffffffffffffffffffffff168473ffffffffffffffffffffffffffffffffffffffff167fddf252ad1be2c89b69c2b068fc378daa952ba7f163c4a11628f55a4df523b3ef60405160405180910390a4505050565b611159848484610ef2565b611165848484846112ff565b6111a4576040517f08c379a000000000000000000000000000000000000000000000000000000000815260040161119b9061246a565b60405180910390fd5b50505050565b606060405180602001604052806000815250905090565b60606111cc82610ce7565b61120b576040517f08c379a00000000000000000000000000000000000000000000000000000000081526004016112029061260a565b60405180910390fd5b60006112156111aa565b905060008151116112355760405180602001604052806000815250611260565b8061123f84611496565b6040516020016112509291906123a2565b6040516020818303038152906040525b915050919050565b611282828260405180602001604052806000815250611643565b5050565b61128f82610ce7565b6112ce576040517f08c379a00000000000000000000000000000000000000000000000000000000081526004016112c59061256a565b60405180910390fd5b806006600084815260200190815260200160002090805190602001906112f592919061187f565b505050565b505050565b60006113208473ffffffffffffffffffffffffffffffffffffffff1661169e565b15611489578373ffffffffffffffffffffffffffffffffffffffff1663150b7a02611349610d53565b8786866040518563ffffffff1660e01b815260040161136b94939291906123e1565b602060405180830381600087803b15801561138557600080fd5b505af19250505080156113b657506040513d601f19601f820116820180604052508101906113b39190611c92565b60015b611439573d80600081146113e6576040519150601f19603f3d011682016040523d82523d6000602084013e6113eb565b606091505b50600081511415611431576040517f08c379a00000000000000000000000000000000000000000000000000000000081526004016114289061246a565b60405180910390fd5b805181602001fd5b63150b7a0260e01b7bffffffffffffffffffffffffffffffffffffffffffffffffffffffff1916817bffffffffffffffffffffffffffffffffffffffffffffffffffffffff19161491505061148e565b600190505b949350505050565b606060008214156114de576040518060400160405280600181526020017f3000000000000000000000000000000000000000000000000000000000000000815250905061163e565b600082905060005b600082146115105780806114f9906128fc565b915050600a8261150991906127af565b91506114e6565b60008167ffffffffffffffff811115611552577f4e487b7100000000000000000000000000000000000000000000000000000000600052604160045260246000fd5b6040519080825280601f01601f1916602001820160405280156115845781602001600182028036833780820191505090505b5090505b600085146116375760018261159d91906127e0565b9150600a856115ac9190612945565b60306115b89190612759565b60f81b8183815181106115f4577f4e487b7100000000000000000000000000000000000000000000000000000000600052603260045260246000fd5b60200101907effffffffffffffffffffffffffffffffffffffffffffffffffffffffffffff1916908160001a905350600a8561163091906127af565b9450611588565b8093505050505b919050565b61164d83836116b1565b61165a60008484846112ff565b611699576040517f08c379a00000000000000000000000000000000000000000000000000000000081526004016116909061246a565b60405180910390fd5b505050565b600080823b905060008111915050919050565b600073ffffffffffffffffffffffffffffffffffffffff168273ffffffffffffffffffffffffffffffffffffffff161415611721576040517f08c379a00000000000000000000000000000000000000000000000000000000081526004016117189061258a565b60405180910390fd5b61172a81610ce7565b1561176a576040517f08c379a00000000000000000000000000000000000000000000000000000000081526004016117619061248a565b60405180910390fd5b611776600083836112fa565b6001600360008473ffffffffffffffffffffffffffffffffffffffff1673ffffffffffffffffffffffffffffffffffffffff16815260200190815260200160002060008282546117c69190612759565b92505081905550816002600083815260200190815260200160002060006101000a81548173ffffffffffffffffffffffffffffffffffffffff021916908373ffffffffffffffffffffffffffffffffffffffff160217905550808273ffffffffffffffffffffffffffffffffffffffff16600073ffffffffffffffffffffffffffffffffffffffff167fddf252ad1be2c89b69c2b068fc378daa952ba7f163c4a11628f55a4df523b3ef60405160405180910390a45050565b82805461188b906128ca565b90600052602060002090601f0160209004810192826118ad57600085556118f4565b82601f106118c657805160ff19168380011785556118f4565b828001600101855582156118f4579182015b828111156118f35782518255916020019190600101906118d8565b5b5090506119019190611905565b5090565b5b8082111561191e576000816000905550600101611906565b5090565b6000611935611930846126b6565b612685565b90508281526020810184848401111561194d57600080fd5b611958848285612888565b509392505050565b600061197361196e846126e6565b612685565b90508281526020810184848401111561198b57600080fd5b611996848285612888565b509392505050565b6000813590506119ad81612a43565b92915050565b6000813590506119c281612a5a565b92915050565b6000813590506119d781612a71565b92915050565b6000815190506119ec81612a71565b92915050565b600082601f830112611a0357600080fd5b8135611a13848260208601611922565b91505092915050565b600082601f830112611a2d57600080fd5b8135611a3d848260208601611960565b91505092915050565b600081359050611a5581612a88565b92915050565b600060208284031215611a6d57600080fd5b6000611a7b8482850161199e565b91505092915050565b60008060408385031215611a9757600080fd5b6000611aa58582860161199e565b9250506020611ab68582860161199e565b9150509250929050565b600080600060608486031215611ad557600080fd5b6000611ae38682870161199e565b9350506020611af48682870161199e565b9250506040611b0586828701611a46565b9150509250925092565b60008060008060808587031215611b2557600080fd5b6000611b338782880161199e565b9450506020611b448782880161199e565b9350506040611b5587828801611a46565b925050606085013567ffffffffffffffff811115611b7257600080fd5b611b7e878288016119f2565b91505092959194509250565b60008060408385031215611b9d57600080fd5b6000611bab8582860161199e565b9250506020611bbc858286016119b3565b9150509250929050565b60008060408385031215611bd957600080fd5b6000611be78582860161199e565b9250506020611bf885828601611a46565b9150509250929050565b600080600060608486031215611c1757600080fd5b6000611c258682870161199e565b9350506020611c3686828701611a46565b925050604084013567ffffffffffffffff811115611c5357600080fd5b611c5f86828701611a1c565b9150509250925092565b600060208284031215611c7b57600080fd5b6000611c89848285016119c8565b91505092915050565b600060208284031215611ca457600080fd5b6000611cb2848285016119dd565b91505092915050565b600060208284031215611ccd57600080fd5b6000611cdb84828501611a46565b91505092915050565b611ced81612814565b82525050565b611cfc81612826565b82525050565b6000611d0d82612716565b611d17818561272c565b9350611d27818560208601612897565b611d3081612a32565b840191505092915050565b6000611d4682612721565b611d50818561273d565b9350611d60818560208601612897565b611d6981612a32565b840191505092915050565b6000611d7f82612721565b611d89818561274e565b9350611d99818560208601612897565b80840191505092915050565b6000611db260328361273d565b91507f4552433732313a207472616e7366657220746f206e6f6e20455243373231526560008301527f63656976657220696d706c656d656e74657200000000000000000000000000006020830152604082019050919050565b6000611e18601c8361273d565b91507f4552433732313a20746f6b656e20616c7265616479206d696e746564000000006000830152602082019050919050565b6000611e5860248361273d565b91507f4552433732313a207472616e7366657220746f20746865207a65726f2061646460008301527f72657373000000000000000000000000000000000000000000000000000000006020830152604082019050919050565b6000611ebe60198361273d565b91507f4552433732313a20617070726f766520746f2063616c6c6572000000000000006000830152602082019050919050565b6000611efe602c8361273d565b91507f4552433732313a206f70657261746f7220717565727920666f72206e6f6e657860008301527f697374656e7420746f6b656e00000000000000000000000000000000000000006020830152604082019050919050565b6000611f6460388361273d565b91507f4552433732313a20617070726f76652063616c6c6572206973206e6f74206f7760008301527f6e6572206e6f7220617070726f76656420666f7220616c6c00000000000000006020830152604082019050919050565b6000611fca602a8361273d565b91507f4552433732313a2062616c616e636520717565727920666f7220746865207a6560008301527f726f2061646472657373000000000000000000000000000000000000000000006020830152604082019050919050565b600061203060298361273d565b91507f4552433732313a206f776e657220717565727920666f72206e6f6e657869737460008301527f656e7420746f6b656e00000000000000000000000000000000000000000000006020830152604082019050919050565b6000612096602e8361273d565b91507f45524337323155524953746f726167653a2055524920736574206f66206e6f6e60008301527f6578697374656e7420746f6b656e0000000000000000000000000000000000006020830152604082019050919050565b60006120fc60208361273d565b91507f4552433732313a206d696e7420746f20746865207a65726f20616464726573736000830152602082019050919050565b600061213c60318361273d565b91507f45524337323155524953746f726167653a2055524920717565727920666f722060008301527f6e6f6e6578697374656e7420746f6b656e0000000000000000000000000000006020830152604082019050919050565b60006121a2602c8361273d565b91507f4552433732313a20617070726f76656420717565727920666f72206e6f6e657860008301527f697374656e7420746f6b656e00000000000000000000000000000000000000006020830152604082019050919050565b600061220860298361273d565b91507f4552433732313a207472616e73666572206f6620746f6b656e2074686174206960008301527f73206e6f74206f776e00000000000000000000000000000000000000000000006020830152604082019050919050565b600061226e602f8361273d565b91507f4552433732314d657461646174613a2055524920717565727920666f72206e6f60008301527f6e6578697374656e7420746f6b656e00000000000000000000000000000000006020830152604082019050919050565b60006122d460218361273d565b91507f4552433732313a20617070726f76616c20746f2063757272656e74206f776e6560008301527f72000000000000000000000000000000000000000000000000000000000000006020830152604082019050919050565b600061233a60318361273d565b91507f4552433732313a207472616e736665722063616c6c6572206973206e6f74206f60008301527f776e6572206e6f7220617070726f7665640000000000000000000000000000006020830152604082019050919050565b61239c8161287e565b82525050565b60006123ae8285611d74565b91506123ba8284611d74565b91508190509392505050565b60006020820190506123db6000830184611ce4565b92915050565b60006080820190506123f66000830187611ce4565b6124036020830186611ce4565b6124106040830185612393565b81810360608301526124228184611d02565b905095945050505050565b60006020820190506124426000830184611cf3565b92915050565b600060208201905081810360008301526124628184611d3b565b905092915050565b6000602082019050818103600083015261248381611da5565b9050919050565b600060208201905081810360008301526124a381611e0b565b9050919050565b600060208201905081810360008301526124c381611e4b565b9050919050565b600060208201905081810360008301526124e381611eb1565b9050919050565b6000602082019050818103600083015261250381611ef1565b9050919050565b6000602082019050818103600083015261252381611f57565b9050919050565b6000602082019050818103600083015261254381611fbd565b9050919050565b6000602082019050818103600083015261256381612023565b9050919050565b6000602082019050818103600083015261258381612089565b9050919050565b600060208201905081810360008301526125a3816120ef565b9050919050565b600060208201905081810360008301526125c38161212f565b9050919050565b600060208201905081810360008301526125e381612195565b9050919050565b60006020820190508181036000830152612603816121fb565b9050919050565b6000602082019050818103600083015261262381612261565b9050919050565b60006020820190508181036000830152612643816122c7565b9050919050565b600060208201905081810360008301526126638161232d565b9050919050565b600060208201905061267f6000830184612393565b92915050565b6000604051905081810181811067ffffffffffffffff821117156126ac576126ab612a03565b5b8060405250919050565b600067ffffffffffffffff8211156126d1576126d0612a03565b5b601f19601f8301169050602081019050919050565b600067ffffffffffffffff82111561270157612700612a03565b5b601f19601f8301169050602081019050919050565b600081519050919050565b600081519050919050565b600082825260208201905092915050565b600082825260208201905092915050565b600081905092915050565b60006127648261287e565b915061276f8361287e565b9250827fffffffffffffffffffffffffffffffffffffffffffffffffffffffffffffffff038211156127a4576127a3612976565b5b828201905092915050565b60006127ba8261287e565b91506127c58361287e565b9250826127d5576127d46129a5565b5b828204905092915050565b60006127eb8261287e565b91506127f68361287e565b92508282101561280957612808612976565b5b828203905092915050565b600061281f8261285e565b9050919050565b60008115159050919050565b60007fffffffff0000000000000000000000000000000000000000000000000000000082169050919050565b600073ffffffffffffffffffffffffffffffffffffffff82169050919050565b6000819050919050565b82818337600083830152505050565b60005b838110156128b557808201518184015260208101905061289a565b838111156128c4576000848401525b50505050565b600060028204905060018216806128e257607f821691505b602082108114156128f6576128f56129d4565b5b50919050565b60006129078261287e565b91507fffffffffffffffffffffffffffffffffffffffffffffffffffffffffffffffff82141561293a57612939612976565b5b600182019050919050565b60006129508261287e565b915061295b8361287e565b92508261296b5761296a6129a5565b5b828206905092915050565b7f4e487b7100000000000000000000000000000000000000000000000000000000600052601160045260246000fd5b7f4e487b7100000000000000000000000000000000000000000000000000000000600052601260045260246000fd5b7f4e487b7100000000000000000000000000000000000000000000000000000000600052602260045260246000fd5b7f4e487b7100000000000000000000000000000000000000000000000000000000600052604160045260246000fd5b6000601f19601f8301169050919050565b612a4c81612814565b8114612a5757600080fd5b50565b612a6381612826565b8114612a6e57600080fd5b50565b612a7a81612832565b8114612a8557600080fd5b50565b612a918161287e565b8114612a9c57600080fd5b5056fea2646970667358221220ab62e73e67ef67cdaecae80568431459894ee18c0cc11cc77e5b308a94ea916a64736f6c63430008000033",
  "immutableReferences": {},
  "source": "pragma solidity ^0.8.0;\nimport \"@openzeppelin/contracts/token/ERC721/extensions/ERC721URIStorage.sol\";\n\ncontract KurateNFT is ERC721URIStorage {\n    constructor() public ERC721(\"Kurate by swarm.city\", \"KURA\") {}\n\n    function mintToken(\n        address receiver,\n        uint256 serial,\n        string memory tokenURI\n    ) \n    public \n    returns (uint256) \n    {\n        _safeMint(receiver, serial);\n        _setTokenURI(serial, tokenURI);\n        return serial;\n    }\n}",
  "sourcePath": "/Users/studio/Documents/coding/insta-swarm/contracts/KurateNFT.sol",
  "compiler": {
    "name": "solc",
    "version": "0.8.0+commit.c7dfd78e.Emscripten.clang"
  },
  "schemaVersion": "3.3.4",
  "updatedAt": "2021-03-24T23:52:05.669Z",
  "devdoc": {
    "kind": "dev",
    "methods": {
      "approve(address,uint256)": {
        "details": "See {IERC721-approve}."
      },
      "balanceOf(address)": {
        "details": "See {IERC721-balanceOf}."
      },
      "getApproved(uint256)": {
        "details": "See {IERC721-getApproved}."
      },
      "isApprovedForAll(address,address)": {
        "details": "See {IERC721-isApprovedForAll}."
      },
      "name()": {
        "details": "See {IERC721Metadata-name}."
      },
      "ownerOf(uint256)": {
        "details": "See {IERC721-ownerOf}."
      },
      "safeTransferFrom(address,address,uint256)": {
        "details": "See {IERC721-safeTransferFrom}."
      },
      "safeTransferFrom(address,address,uint256,bytes)": {
        "details": "See {IERC721-safeTransferFrom}."
      },
      "setApprovalForAll(address,bool)": {
        "details": "See {IERC721-setApprovalForAll}."
      },
      "supportsInterface(bytes4)": {
        "details": "See {IERC165-supportsInterface}."
      },
      "symbol()": {
        "details": "See {IERC721Metadata-symbol}."
      },
      "tokenURI(uint256)": {
        "details": "See {IERC721Metadata-tokenURI}."
      },
      "transferFrom(address,address,uint256)": {
        "details": "See {IERC721-transferFrom}."
      }
    },
    "version": 1
  },
  "userdoc": {
    "kind": "user",
    "methods": {},
    "version": 1
  }
}