{
  "_format": "hh-sol-artifact-1",
  "contractName": "KurateNFT",
  "sourceName": "contracts/KurateNFT.sol",
  "abi": [
    {
      "inputs": [],
      "stateMutability": "nonpayable",
      "type": "constructor"
    },
    {
      "anonymous": false,
      "inputs": [
        {
          "indexed": true,
          "internalType": "address",
          "name": "owner",
          "type": "address"
        },
        {
          "indexed": true,
          "internalType": "address",
          "name": "approved",
          "type": "address"
        },
        {
          "indexed": true,
          "internalType": "uint256",
          "name": "tokenId",
          "type": "uint256"
        }
      ],
      "name": "Approval",
      "type": "event"
    },
    {
      "anonymous": false,
      "inputs": [
        {
          "indexed": true,
          "internalType": "address",
          "name": "owner",
          "type": "address"
        },
        {
          "indexed": true,
          "internalType": "address",
          "name": "operator",
          "type": "address"
        },
        {
          "indexed": false,
          "internalType": "bool",
          "name": "approved",
          "type": "bool"
        }
      ],
      "name": "ApprovalForAll",
      "type": "event"
    },
    {
      "anonymous": false,
      "inputs": [
        {
          "indexed": true,
          "internalType": "address",
          "name": "from",
          "type": "address"
        },
        {
          "indexed": true,
          "internalType": "address",
          "name": "to",
          "type": "address"
        },
        {
          "indexed": true,
          "internalType": "uint256",
          "name": "tokenId",
          "type": "uint256"
        }
      ],
      "name": "Transfer",
      "type": "event"
    },
    {
      "inputs": [
        {
          "internalType": "address",
          "name": "to",
          "type": "address"
        },
        {
          "internalType": "uint256",
          "name": "tokenId",
          "type": "uint256"
        }
      ],
      "name": "approve",
      "outputs": [],
      "stateMutability": "nonpayable",
      "type": "function"
    },
    {
      "inputs": [
        {
          "internalType": "address",
          "name": "owner",
          "type": "address"
        }
      ],
      "name": "balanceOf",
      "outputs": [
        {
          "internalType": "uint256",
          "name": "",
          "type": "uint256"
        }
      ],
      "stateMutability": "view",
      "type": "function"
    },
    {
      "inputs": [
        {
          "internalType": "uint256",
          "name": "tokenId",
          "type": "uint256"
        }
      ],
      "name": "getApproved",
      "outputs": [
        {
          "internalType": "address",
          "name": "",
          "type": "address"
        }
      ],
      "stateMutability": "view",
      "type": "function"
    },
    {
      "inputs": [
        {
          "internalType": "address",
          "name": "owner",
          "type": "address"
        },
        {
          "internalType": "address",
          "name": "operator",
          "type": "address"
        }
      ],
      "name": "isApprovedForAll",
      "outputs": [
        {
          "internalType": "bool",
          "name": "",
          "type": "bool"
        }
      ],
      "stateMutability": "view",
      "type": "function"
    },
    {
      "inputs": [
        {
          "internalType": "address",
          "name": "receiver",
          "type": "address"
        },
        {
          "internalType": "uint256",
          "name": "serial",
          "type": "uint256"
        },
        {
          "internalType": "string",
          "name": "tokenURI",
          "type": "string"
        }
      ],
      "name": "mintToken",
      "outputs": [
        {
          "internalType": "uint256",
          "name": "",
          "type": "uint256"
        }
      ],
      "stateMutability": "nonpayable",
      "type": "function"
    },
    {
      "inputs": [],
      "name": "name",
      "outputs": [
        {
          "internalType": "string",
          "name": "",
          "type": "string"
        }
      ],
      "stateMutability": "view",
      "type": "function"
    },
    {
      "inputs": [
        {
          "internalType": "uint256",
          "name": "tokenId",
          "type": "uint256"
        }
      ],
      "name": "ownerOf",
      "outputs": [
        {
          "internalType": "address",
          "name": "",
          "type": "address"
        }
      ],
      "stateMutability": "view",
      "type": "function"
    },
    {
      "inputs": [
        {
          "internalType": "address",
          "name": "from",
          "type": "address"
        },
        {
          "internalType": "address",
          "name": "to",
          "type": "address"
        },
        {
          "internalType": "uint256",
          "name": "tokenId",
          "type": "uint256"
        }
      ],
      "name": "safeTransferFrom",
      "outputs": [],
      "stateMutability": "nonpayable",
      "type": "function"
    },
    {
      "inputs": [
        {
          "internalType": "address",
          "name": "from",
          "type": "address"
        },
        {
          "internalType": "address",
          "name": "to",
          "type": "address"
        },
        {
          "internalType": "uint256",
          "name": "tokenId",
          "type": "uint256"
        },
        {
          "internalType": "bytes",
          "name": "_data",
          "type": "bytes"
        }
      ],
      "name": "safeTransferFrom",
      "outputs": [],
      "stateMutability": "nonpayable",
      "type": "function"
    },
    {
      "inputs": [
        {
          "internalType": "address",
          "name": "operator",
          "type": "address"
        },
        {
          "internalType": "bool",
          "name": "approved",
          "type": "bool"
        }
      ],
      "name": "setApprovalForAll",
      "outputs": [],
      "stateMutability": "nonpayable",
      "type": "function"
    },
    {
      "inputs": [
        {
          "internalType": "bytes4",
          "name": "interfaceId",
          "type": "bytes4"
        }
      ],
      "name": "supportsInterface",
      "outputs": [
        {
          "internalType": "bool",
          "name": "",
          "type": "bool"
        }
      ],
      "stateMutability": "view",
      "type": "function"
    },
    {
      "inputs": [],
      "name": "symbol",
      "outputs": [
        {
          "internalType": "string",
          "name": "",
          "type": "string"
        }
      ],
      "stateMutability": "view",
      "type": "function"
    },
    {
      "inputs": [
        {
          "internalType": "uint256",
          "name": "tokenId",
          "type": "uint256"
        }
      ],
      "name": "tokenURI",
      "outputs": [
        {
          "internalType": "string",
          "name": "",
          "type": "string"
        }
      ],
      "stateMutability": "view",
      "type": "function"
    },
    {
      "inputs": [
        {
          "internalType": "address",
          "name": "from",
          "type": "address"
        },
        {
          "internalType": "address",
          "name": "to",
          "type": "address"
        },
        {
          "internalType": "uint256",
          "name": "tokenId",
          "type": "uint256"
        }
      ],
      "name": "transferFrom",
      "outputs": [],
      "stateMutability": "nonpayable",
      "type": "function"
    }
  ],
  "bytecode": "0x60806040523480156200001157600080fd5b506040518060400160405280601481526020017f4b757261746520627920737761726d2e636974790000000000000000000000008152506040518060400160405280600481526020017f4b55524100000000000000000000000000000000000000000000000000000000815250816000908051906020019062000096929190620000b8565b508060019080519060200190620000af929190620000b8565b505050620001cd565b828054620000c69062000197565b90600052602060002090601f016020900481019282620000ea576000855562000136565b82601f106200010557805160ff191683800117855562000136565b8280016001018555821562000136579182015b828111156200013557825182559160200191906001019062000118565b5b50905062000145919062000149565b5090565b5b80821115620001645760008160009055506001016200014a565b5090565b7f4e487b7100000000000000000000000000000000000000000000000000000000600052602260045260246000fd5b60006002820490506001821680620001b057607f821691505b60208210811415620001c757620001c662000168565b5b50919050565b612c1280620001dd6000396000f3fe608060405234801561001057600080fd5b50600436106100ea5760003560e01c806370a082311161008c578063b88d4fde11610066578063b88d4fde1461025b578063c87b56dd14610277578063e985e9c5146102a7578063f76e8ba9146102d7576100ea565b806370a08231146101f157806395d89b4114610221578063a22cb4651461023f576100ea565b8063095ea7b3116100c8578063095ea7b31461016d57806323b872dd1461018957806342842e0e146101a55780636352211e146101c1576100ea565b806301ffc9a7146100ef57806306fdde031461011f578063081812fc1461013d575b600080fd5b61010960048036038101906101049190611961565b610307565b60405161011691906119a9565b60405180910390f35b6101276103e9565b6040516101349190611a5d565b60405180910390f35b61015760048036038101906101529190611ab5565b61047b565b6040516101649190611b23565b60405180910390f35b61018760048036038101906101829190611b6a565b610500565b005b6101a3600480360381019061019e9190611baa565b610618565b005b6101bf60048036038101906101ba9190611baa565b610678565b005b6101db60048036038101906101d69190611ab5565b610698565b6040516101e89190611b23565b60405180910390f35b61020b60048036038101906102069190611bfd565b61074a565b6040516102189190611c39565b60405180910390f35b610229610802565b6040516102369190611a5d565b60405180910390f35b61025960048036038101906102549190611c80565b610894565b005b61027560048036038101906102709190611df5565b6108aa565b005b610291600480360381019061028c9190611ab5565b61090c565b60405161029e9190611a5d565b60405180910390f35b6102c160048036038101906102bc9190611e78565b610a5e565b6040516102ce91906119a9565b60405180910390f35b6102f160048036038101906102ec9190611f59565b610af2565b6040516102fe9190611c39565b60405180910390f35b60007f80ac58cd000000000000000000000000000000000000000000000000000000007bffffffffffffffffffffffffffffffffffffffffffffffffffffffff1916827bffffffffffffffffffffffffffffffffffffffffffffffffffffffff191614806103d257507f5b5e139f000000000000000000000000000000000000000000000000000000007bffffffffffffffffffffffffffffffffffffffffffffffffffffffff1916827bffffffffffffffffffffffffffffffffffffffffffffffffffffffff1916145b806103e257506103e182610b12565b5b9050919050565b6060600080546103f890611ff7565b80601f016020809104026020016040519081016040528092919081815260200182805461042490611ff7565b80156104715780601f1061044657610100808354040283529160200191610471565b820191906000526020600020905b81548152906001019060200180831161045457829003601f168201915b5050505050905090565b600061048682610b7c565b6104c5576040517f08c379a00000000000000000000000000000000000000000000000000000000081526004016104bc9061209b565b60405180910390fd5b6004600083815260200190815260200160002060009054906101000a900473ffffffffffffffffffffffffffffffffffffffff169050919050565b600061050b82610698565b90508073ffffffffffffffffffffffffffffffffffffffff168373ffffffffffffffffffffffffffffffffffffffff16141561057c576040517f08c379a00000000000000000000000000000000000000000000000000000000081526004016105739061212d565b60405180910390fd5b8073ffffffffffffffffffffffffffffffffffffffff1661059b610be8565b73ffffffffffffffffffffffffffffffffffffffff1614806105ca57506105c9816105c4610be8565b610a5e565b5b610609576040517f08c379a0000000000000000000000000000000000000000000000000000000008152600401610600906121bf565b60405180910390fd5b6106138383610bf0565b505050565b610629610623610be8565b82610ca9565b610668576040517f08c379a000000000000000000000000000000000000000000000000000000000815260040161065f90612251565b60405180910390fd5b610673838383610d87565b505050565b610693838383604051806020016040528060008152506108aa565b505050565b6000806002600084815260200190815260200160002060009054906101000a900473ffffffffffffffffffffffffffffffffffffffff169050600073ffffffffffffffffffffffffffffffffffffffff168173ffffffffffffffffffffffffffffffffffffffff161415610741576040517f08c379a0000000000000000000000000000000000000000000000000000000008152600401610738906122e3565b60405180910390fd5b80915050919050565b60008073ffffffffffffffffffffffffffffffffffffffff168273ffffffffffffffffffffffffffffffffffffffff1614156107bb576040517f08c379a00000000000000000000000000000000000000000000000000000000081526004016107b290612375565b60405180910390fd5b600360008373ffffffffffffffffffffffffffffffffffffffff1673ffffffffffffffffffffffffffffffffffffffff168152602001908152602001600020549050919050565b60606001805461081190611ff7565b80601f016020809104026020016040519081016040528092919081815260200182805461083d90611ff7565b801561088a5780601f1061085f5761010080835404028352916020019161088a565b820191906000526020600020905b81548152906001019060200180831161086d57829003601f168201915b5050505050905090565b6108a661089f610be8565b8383610fee565b5050565b6108bb6108b5610be8565b83610ca9565b6108fa576040517f08c379a00000000000000000000000000000000000000000000000000000000081526004016108f190612251565b60405180910390fd5b6109068484848461115b565b50505050565b606061091782610b7c565b610956576040517f08c379a000000000000000000000000000000000000000000000000000000000815260040161094d90612407565b60405180910390fd5b600060066000848152602001908152602001600020805461097690611ff7565b80601f01602080910402602001604051908101604052809291908181526020018280546109a290611ff7565b80156109ef5780601f106109c4576101008083540402835291602001916109ef565b820191906000526020600020905b8154815290600101906020018083116109d257829003601f168201915b505050505090506000610a006111b7565b9050600081511415610a16578192505050610a59565b600082511115610a4b578082604051602001610a33929190612463565b60405160208183030381529060405292505050610a59565b610a54846111ce565b925050505b919050565b6000600560008473ffffffffffffffffffffffffffffffffffffffff1673ffffffffffffffffffffffffffffffffffffffff16815260200190815260200160002060008373ffffffffffffffffffffffffffffffffffffffff1673ffffffffffffffffffffffffffffffffffffffff16815260200190815260200160002060009054906101000a900460ff16905092915050565b6000610afe8484611275565b610b088383611293565b8290509392505050565b60007f01ffc9a7000000000000000000000000000000000000000000000000000000007bffffffffffffffffffffffffffffffffffffffffffffffffffffffff1916827bffffffffffffffffffffffffffffffffffffffffffffffffffffffff1916149050919050565b60008073ffffffffffffffffffffffffffffffffffffffff166002600084815260200190815260200160002060009054906101000a900473ffffffffffffffffffffffffffffffffffffffff1673ffffffffffffffffffffffffffffffffffffffff1614159050919050565b600033905090565b816004600083815260200190815260200160002060006101000a81548173ffffffffffffffffffffffffffffffffffffffff021916908373ffffffffffffffffffffffffffffffffffffffff160217905550808273ffffffffffffffffffffffffffffffffffffffff16610c6383610698565b73ffffffffffffffffffffffffffffffffffffffff167f8c5be1e5ebec7d5bd14f71427d1e84f3dd0314c0f7b2291e5b200ac8c7c3b92560405160405180910390a45050565b6000610cb482610b7c565b610cf3576040517f08c379a0000000000000000000000000000000000000000000000000000000008152600401610cea906124f9565b60405180910390fd5b6000610cfe83610698565b90508073ffffffffffffffffffffffffffffffffffffffff168473ffffffffffffffffffffffffffffffffffffffff161480610d6d57508373ffffffffffffffffffffffffffffffffffffffff16610d558461047b565b73ffffffffffffffffffffffffffffffffffffffff16145b80610d7e5750610d7d8185610a5e565b5b91505092915050565b8273ffffffffffffffffffffffffffffffffffffffff16610da782610698565b73ffffffffffffffffffffffffffffffffffffffff1614610dfd576040517f08c379a0000000000000000000000000000000000000000000000000000000008152600401610df49061258b565b60405180910390fd5b600073ffffffffffffffffffffffffffffffffffffffff168273ffffffffffffffffffffffffffffffffffffffff161415610e6d576040517f08c379a0000000000000000000000000000000000000000000000000000000008152600401610e649061261d565b60405180910390fd5b610e78838383611307565b610e83600082610bf0565b6001600360008573ffffffffffffffffffffffffffffffffffffffff1673ffffffffffffffffffffffffffffffffffffffff1681526020019081526020016000206000828254610ed3919061266c565b925050819055506001600360008473ffffffffffffffffffffffffffffffffffffffff1673ffffffffffffffffffffffffffffffffffffffff1681526020019081526020016000206000828254610f2a91906126a0565b92505081905550816002600083815260200190815260200160002060006101000a81548173ffffffffffffffffffffffffffffffffffffffff021916908373ffffffffffffffffffffffffffffffffffffffff160217905550808273ffffffffffffffffffffffffffffffffffffffff168473ffffffffffffffffffffffffffffffffffffffff167fddf252ad1be2c89b69c2b068fc378daa952ba7f163c4a11628f55a4df523b3ef60405160405180910390a4610fe983838361130c565b505050565b8173ffffffffffffffffffffffffffffffffffffffff168373ffffffffffffffffffffffffffffffffffffffff16141561105d576040517f08c379a000000000000000000000000000000000000000000000000000000000815260040161105490612742565b60405180910390fd5b80600560008573ffffffffffffffffffffffffffffffffffffffff1673ffffffffffffffffffffffffffffffffffffffff16815260200190815260200160002060008473ffffffffffffffffffffffffffffffffffffffff1673ffffffffffffffffffffffffffffffffffffffff16815260200190815260200160002060006101000a81548160ff0219169083151502179055508173ffffffffffffffffffffffffffffffffffffffff168373ffffffffffffffffffffffffffffffffffffffff167f17307eab39ab6107e8899845ad3d59bd9653f200f220920489ca2b5937696c318360405161114e91906119a9565b60405180910390a3505050565b611166848484610d87565b61117284848484611311565b6111b1576040517f08c379a00000000000000000000000000000000000000000000000000000000081526004016111a8906127d4565b60405180910390fd5b50505050565b606060405180602001604052806000815250905090565b60606111d982610b7c565b611218576040517f08c379a000000000000000000000000000000000000000000000000000000000815260040161120f90612866565b60405180910390fd5b60006112226111b7565b90506000815111611242576040518060200160405280600081525061126d565b8061124c84611499565b60405160200161125d929190612463565b6040516020818303038152906040525b915050919050565b61128f8282604051806020016040528060008152506115fa565b5050565b61129c82610b7c565b6112db576040517f08c379a00000000000000000000000000000000000000000000000000000000081526004016112d2906128f8565b60405180910390fd5b80600660008481526020019081526020016000209080519060200190611302929190611852565b505050565b505050565b505050565b60006113328473ffffffffffffffffffffffffffffffffffffffff16611655565b1561148c578373ffffffffffffffffffffffffffffffffffffffff1663150b7a0261135b610be8565b8786866040518563ffffffff1660e01b815260040161137d949392919061296d565b6020604051808303816000875af19250505080156113b957506040513d601f19601f820116820180604052508101906113b691906129ce565b60015b61143c573d80600081146113e9576040519150601f19603f3d011682016040523d82523d6000602084013e6113ee565b606091505b50600081511415611434576040517f08c379a000000000000000000000000000000000000000000000000000000000815260040161142b906127d4565b60405180910390fd5b805181602001fd5b63150b7a0260e01b7bffffffffffffffffffffffffffffffffffffffffffffffffffffffff1916817bffffffffffffffffffffffffffffffffffffffffffffffffffffffff191614915050611491565b600190505b949350505050565b606060008214156114e1576040518060400160405280600181526020017f300000000000000000000000000000000000000000000000000000000000000081525090506115f5565b600082905060005b600082146115135780806114fc906129fb565b915050600a8261150c9190612a73565b91506114e9565b60008167ffffffffffffffff81111561152f5761152e611cca565b5b6040519080825280601f01601f1916602001820160405280156115615781602001600182028036833780820191505090505b5090505b600085146115ee5760018261157a919061266c565b9150600a856115899190612aa4565b603061159591906126a0565b60f81b8183815181106115ab576115aa612ad5565b5b60200101907effffffffffffffffffffffffffffffffffffffffffffffffffffffffffffff1916908160001a905350600a856115e79190612a73565b9450611565565b8093505050505b919050565b6116048383611678565b6116116000848484611311565b611650576040517f08c379a0000000000000000000000000000000000000000000000000000000008152600401611647906127d4565b60405180910390fd5b505050565b6000808273ffffffffffffffffffffffffffffffffffffffff163b119050919050565b600073ffffffffffffffffffffffffffffffffffffffff168273ffffffffffffffffffffffffffffffffffffffff1614156116e8576040517f08c379a00000000000000000000000000000000000000000000000000000000081526004016116df90612b50565b60405180910390fd5b6116f181610b7c565b15611731576040517f08c379a000000000000000000000000000000000000000000000000000000000815260040161172890612bbc565b60405180910390fd5b61173d60008383611307565b6001600360008473ffffffffffffffffffffffffffffffffffffffff1673ffffffffffffffffffffffffffffffffffffffff168152602001908152602001600020600082825461178d91906126a0565b92505081905550816002600083815260200190815260200160002060006101000a81548173ffffffffffffffffffffffffffffffffffffffff021916908373ffffffffffffffffffffffffffffffffffffffff160217905550808273ffffffffffffffffffffffffffffffffffffffff16600073ffffffffffffffffffffffffffffffffffffffff167fddf252ad1be2c89b69c2b068fc378daa952ba7f163c4a11628f55a4df523b3ef60405160405180910390a461184e6000838361130c565b5050565b82805461185e90611ff7565b90600052602060002090601f01602090048101928261188057600085556118c7565b82601f1061189957805160ff19168380011785556118c7565b828001600101855582156118c7579182015b828111156118c65782518255916020019190600101906118ab565b5b5090506118d491906118d8565b5090565b5b808211156118f15760008160009055506001016118d9565b5090565b6000604051905090565b600080fd5b600080fd5b60007fffffffff0000000000000000000000000000000000000000000000000000000082169050919050565b61193e81611909565b811461194957600080fd5b50565b60008135905061195b81611935565b92915050565b600060208284031215611977576119766118ff565b5b60006119858482850161194c565b91505092915050565b60008115159050919050565b6119a38161198e565b82525050565b60006020820190506119be600083018461199a565b92915050565b600081519050919050565b600082825260208201905092915050565b60005b838110156119fe5780820151818401526020810190506119e3565b83811115611a0d576000848401525b50505050565b6000601f19601f8301169050919050565b6000611a2f826119c4565b611a3981856119cf565b9350611a498185602086016119e0565b611a5281611a13565b840191505092915050565b60006020820190508181036000830152611a778184611a24565b905092915050565b6000819050919050565b611a9281611a7f565b8114611a9d57600080fd5b50565b600081359050611aaf81611a89565b92915050565b600060208284031215611acb57611aca6118ff565b5b6000611ad984828501611aa0565b91505092915050565b600073ffffffffffffffffffffffffffffffffffffffff82169050919050565b6000611b0d82611ae2565b9050919050565b611b1d81611b02565b82525050565b6000602082019050611b386000830184611b14565b92915050565b611b4781611b02565b8114611b5257600080fd5b50565b600081359050611b6481611b3e565b92915050565b60008060408385031215611b8157611b806118ff565b5b6000611b8f85828601611b55565b9250506020611ba085828601611aa0565b9150509250929050565b600080600060608486031215611bc357611bc26118ff565b5b6000611bd186828701611b55565b9350506020611be286828701611b55565b9250506040611bf386828701611aa0565b9150509250925092565b600060208284031215611c1357611c126118ff565b5b6000611c2184828501611b55565b91505092915050565b611c3381611a7f565b82525050565b6000602082019050611c4e6000830184611c2a565b92915050565b611c5d8161198e565b8114611c6857600080fd5b50565b600081359050611c7a81611c54565b92915050565b60008060408385031215611c9757611c966118ff565b5b6000611ca585828601611b55565b9250506020611cb685828601611c6b565b9150509250929050565b600080fd5b600080fd5b7f4e487b7100000000000000000000000000000000000000000000000000000000600052604160045260246000fd5b611d0282611a13565b810181811067ffffffffffffffff82111715611d2157611d20611cca565b5b80604052505050565b6000611d346118f5565b9050611d408282611cf9565b919050565b600067ffffffffffffffff821115611d6057611d5f611cca565b5b611d6982611a13565b9050602081019050919050565b82818337600083830152505050565b6000611d98611d9384611d45565b611d2a565b905082815260208101848484011115611db457611db3611cc5565b5b611dbf848285611d76565b509392505050565b600082601f830112611ddc57611ddb611cc0565b5b8135611dec848260208601611d85565b91505092915050565b60008060008060808587031215611e0f57611e0e6118ff565b5b6000611e1d87828801611b55565b9450506020611e2e87828801611b55565b9350506040611e3f87828801611aa0565b925050606085013567ffffffffffffffff811115611e6057611e5f611904565b5b611e6c87828801611dc7565b91505092959194509250565b60008060408385031215611e8f57611e8e6118ff565b5b6000611e9d85828601611b55565b9250506020611eae85828601611b55565b9150509250929050565b600067ffffffffffffffff821115611ed357611ed2611cca565b5b611edc82611a13565b9050602081019050919050565b6000611efc611ef784611eb8565b611d2a565b905082815260208101848484011115611f1857611f17611cc5565b5b611f23848285611d76565b509392505050565b600082601f830112611f4057611f3f611cc0565b5b8135611f50848260208601611ee9565b91505092915050565b600080600060608486031215611f7257611f716118ff565b5b6000611f8086828701611b55565b9350506020611f9186828701611aa0565b925050604084013567ffffffffffffffff811115611fb257611fb1611904565b5b611fbe86828701611f2b565b9150509250925092565b7f4e487b7100000000000000000000000000000000000000000000000000000000600052602260045260246000fd5b6000600282049050600182168061200f57607f821691505b6020821081141561202357612022611fc8565b5b50919050565b7f4552433732313a20617070726f76656420717565727920666f72206e6f6e657860008201527f697374656e7420746f6b656e0000000000000000000000000000000000000000602082015250565b6000612085602c836119cf565b915061209082612029565b604082019050919050565b600060208201905081810360008301526120b481612078565b9050919050565b7f4552433732313a20617070726f76616c20746f2063757272656e74206f776e6560008201527f7200000000000000000000000000000000000000000000000000000000000000602082015250565b60006121176021836119cf565b9150612122826120bb565b604082019050919050565b600060208201905081810360008301526121468161210a565b9050919050565b7f4552433732313a20617070726f76652063616c6c6572206973206e6f74206f7760008201527f6e6572206e6f7220617070726f76656420666f7220616c6c0000000000000000602082015250565b60006121a96038836119cf565b91506121b48261214d565b604082019050919050565b600060208201905081810360008301526121d88161219c565b9050919050565b7f4552433732313a207472616e736665722063616c6c6572206973206e6f74206f60008201527f776e6572206e6f7220617070726f766564000000000000000000000000000000602082015250565b600061223b6031836119cf565b9150612246826121df565b604082019050919050565b6000602082019050818103600083015261226a8161222e565b9050919050565b7f4552433732313a206f776e657220717565727920666f72206e6f6e657869737460008201527f656e7420746f6b656e0000000000000000000000000000000000000000000000602082015250565b60006122cd6029836119cf565b91506122d882612271565b604082019050919050565b600060208201905081810360008301526122fc816122c0565b9050919050565b7f4552433732313a2062616c616e636520717565727920666f7220746865207a6560008201527f726f206164647265737300000000000000000000000000000000000000000000602082015250565b600061235f602a836119cf565b915061236a82612303565b604082019050919050565b6000602082019050818103600083015261238e81612352565b9050919050565b7f45524337323155524953746f726167653a2055524920717565727920666f722060008201527f6e6f6e6578697374656e7420746f6b656e000000000000000000000000000000602082015250565b60006123f16031836119cf565b91506123fc82612395565b604082019050919050565b60006020820190508181036000830152612420816123e4565b9050919050565b600081905092915050565b600061243d826119c4565b6124478185612427565b93506124578185602086016119e0565b80840191505092915050565b600061246f8285612432565b915061247b8284612432565b91508190509392505050565b7f4552433732313a206f70657261746f7220717565727920666f72206e6f6e657860008201527f697374656e7420746f6b656e0000000000000000000000000000000000000000602082015250565b60006124e3602c836119cf565b91506124ee82612487565b604082019050919050565b60006020820190508181036000830152612512816124d6565b9050919050565b7f4552433732313a207472616e736665722066726f6d20696e636f72726563742060008201527f6f776e6572000000000000000000000000000000000000000000000000000000602082015250565b60006125756025836119cf565b915061258082612519565b604082019050919050565b600060208201905081810360008301526125a481612568565b9050919050565b7f4552433732313a207472616e7366657220746f20746865207a65726f2061646460008201527f7265737300000000000000000000000000000000000000000000000000000000602082015250565b60006126076024836119cf565b9150612612826125ab565b604082019050919050565b60006020820190508181036000830152612636816125fa565b9050919050565b7f4e487b7100000000000000000000000000000000000000000000000000000000600052601160045260246000fd5b600061267782611a7f565b915061268283611a7f565b9250828210156126955761269461263d565b5b828203905092915050565b60006126ab82611a7f565b91506126b683611a7f565b9250827fffffffffffffffffffffffffffffffffffffffffffffffffffffffffffffffff038211156126eb576126ea61263d565b5b828201905092915050565b7f4552433732313a20617070726f766520746f2063616c6c657200000000000000600082015250565b600061272c6019836119cf565b9150612737826126f6565b602082019050919050565b6000602082019050818103600083015261275b8161271f565b9050919050565b7f4552433732313a207472616e7366657220746f206e6f6e20455243373231526560008201527f63656976657220696d706c656d656e7465720000000000000000000000000000602082015250565b60006127be6032836119cf565b91506127c982612762565b604082019050919050565b600060208201905081810360008301526127ed816127b1565b9050919050565b7f4552433732314d657461646174613a2055524920717565727920666f72206e6f60008201527f6e6578697374656e7420746f6b656e0000000000000000000000000000000000602082015250565b6000612850602f836119cf565b915061285b826127f4565b604082019050919050565b6000602082019050818103600083015261287f81612843565b9050919050565b7f45524337323155524953746f726167653a2055524920736574206f66206e6f6e60008201527f6578697374656e7420746f6b656e000000000000000000000000000000000000602082015250565b60006128e2602e836119cf565b91506128ed82612886565b604082019050919050565b60006020820190508181036000830152612911816128d5565b9050919050565b600081519050919050565b600082825260208201905092915050565b600061293f82612918565b6129498185612923565b93506129598185602086016119e0565b61296281611a13565b840191505092915050565b60006080820190506129826000830187611b14565b61298f6020830186611b14565b61299c6040830185611c2a565b81810360608301526129ae8184612934565b905095945050505050565b6000815190506129c881611935565b92915050565b6000602082840312156129e4576129e36118ff565b5b60006129f2848285016129b9565b91505092915050565b6000612a0682611a7f565b91507fffffffffffffffffffffffffffffffffffffffffffffffffffffffffffffffff821415612a3957612a3861263d565b5b600182019050919050565b7f4e487b7100000000000000000000000000000000000000000000000000000000600052601260045260246000fd5b6000612a7e82611a7f565b9150612a8983611a7f565b925082612a9957612a98612a44565b5b828204905092915050565b6000612aaf82611a7f565b9150612aba83611a7f565b925082612aca57612ac9612a44565b5b828206905092915050565b7f4e487b7100000000000000000000000000000000000000000000000000000000600052603260045260246000fd5b7f4552433732313a206d696e7420746f20746865207a65726f2061646472657373600082015250565b6000612b3a6020836119cf565b9150612b4582612b04565b602082019050919050565b60006020820190508181036000830152612b6981612b2d565b9050919050565b7f4552433732313a20746f6b656e20616c7265616479206d696e74656400000000600082015250565b6000612ba6601c836119cf565b9150612bb182612b70565b602082019050919050565b60006020820190508181036000830152612bd581612b99565b905091905056fea26469706673582212205bd947dbad85dd20dd57c01789287e93eb3e216decd6325b29f9a1d0192497ae64736f6c634300080b0033",
  "linkReferences": {},
  "deployedLinkReferences": {}
}